:020000040800F2
:1000000000000220C51F0008DD1E0008DF1E0008DA
:10001000E11E0008E31E0008E51E000800000000C5
:10002000000000000000000000000000E71E0008C3
:10003000E91E000800000000EB1E0008ED1E00088D
:1000400015200008152000081520000815200008BC
:1000500015200008152000081520000815200008AC
:10006000152000081520000815200008152000089C
:10007000152000081520000815200008152000088C
:10008000152000081520000815200008152000087C
:10009000152000081520000815200008152000086C
:1000A000152000081520000815200008152000085C
:1000B000152000081520000815200008152000084C
:1000C000152000081520000815200008152000083C
:1000D0001520000815200008F91E0008152000084A
:1000E000152000081520000815200008152000081C
:1000F000152000081520000815200008152000080C
:1001000015200008152000081520000815200008FB
:100110001520000815200008091F000815200008F8
:1001200015200008152000081520000815200008DB
:1001300015200008152000081520000815200008CB
:1001400015200008152000081520000815200008BB
:1001500015200008152000081520000815200008AB
:10016000152000081520000815200008152000089B
:1001700015200008152000081520000800000000C8
:080180001520000815200008FD
:1001880010B5054C237833B9044B13B10448AFF3C9
:1001980000800123237010BD7000002000000000C3
:1001A8000C22000808B5034B1BB103490348AFF301
:1001B800008008BD00000000740000200C22000828
:1001C80053B94AB9002908BF00281CBF4FF0FF31B6
:1001D8004FF0FF3000F072B9ADF1080C6DE904CEB4
:1001E80000F006F8DDF804E0DDE9022304B070470A
:1001F8002DE9F047089E04468846002B4BD18A42D9
:10020800154667D9B2FA82F24AB1C2F1200701FA5B
:1002180002F320FA07F7954047EA030894404FEAAB
:10022800154E230CB8FBFEF71FFA85FC0EFB17884A
:1002380043EA084307FB0CF1994209D9EB1807F187
:10024800FF3080F01B81994240F21881023F2B4415
:100258005B1AA4B2B3FBFEF00EFB103344EA03446E
:1002680000FB0CFCA44509D92C1900F1FF3380F0E0
:100278000781A44540F2048102382C4440EA074033
:10028800A4EB0C0400271EB1D4400023C6E90043A8
:100298003946BDE8F0878B4209D9002E00F0EB8083
:1002A8000027C6E9000138463946BDE8F087B3FAA9
:1002B80083F7002F47D18B4202D3824200F2FA80A3
:1002C800841A61EB030301209846002EE0D0C6E9AA
:1002D8000048DDE702B9FFDEB2FA82F2002A40F0F8
:1002E8008F80491B4FEA154E1FFA85F80127B1FB8D
:1002F800FEFC230C0EFB1C1143EA014308FB0CF126
:10030800994207D9EB180CF1FF3002D2994200F25A
:10031800CD808446591AA3B2B1FBFEF00EFB10142F
:1003280043EA044408FB00F8A04507D92C1900F15A
:10033800FF3302D2A04500F2B6801846A4EB0804A9
:1003480040EA0C409FE7C7F1200CBB4022FA0CFEA4
:100358004EEA030E01FA07F420FA0CF521FA0CF321
:100368004FEA1E482543B3FBF8F92C0C08FB193358
:100378001FFA8EFA44EA034309FB0AF49C4202FA84
:1003880007F200FA07F10BD91EEB030309F1FF305E
:1003980080F087809C4240F28480A9F1020973446E
:1003A8001B1BADB2B3FBF8F008FB103345EA03445E
:1003B80000FB0AFAA24508D91EEB040400F1FF333A
:1003C8006BD2A24569D90238744440EA0940A0FBBF
:1003D8000289A4EB0A044C45C2464B4654D351D07B
:1003E800002E69D0B1EB0A0564EB030404FA0CFC97
:1003F800FD40FC404CEA0505C6E90054002747E7E4
:10040800C2F1200320FA03F7954001FA02F021FA1D
:1004180003F34FEA154E3843010CB3FBFEF71FFAFE
:1004280085F80EFB173341EA034107FB08F38B42BB
:1004380004FA02F407D9691807F1FF3C2FD28B425E
:100448002DD9023F2944CB1A81B2B3FBFEF00EFB33
:10045800103341EA034100FB08F38B4207D96918BE
:1004680000F1FF3C17D28B4215D902382944C91A2A
:1004780040EA07473BE73746304609E70746E7E6DD
:100488001846FBE64145ABD2B8EB020A69EB0E020F
:1004980001381346A4E76046E9E7184695E767463A
:1004A800D1E781467CE702382C4447E7ACF1020CDF
:1004B8002B442FE7384608E73746E9E6704700BF80
:1004C80010B504460E4B18784FF47A73B3FBF0F36B
:1004D8000C4A1068B0FBF3F000F0A8F868B90F2CCC
:1004E80001D901200AE0002221464FF0FF3000F038
:1004F8005DF8034B5C60002000E0012010BD00BFE8
:10050800000000200800002008B50B4B1A6842F4D0
:1005180000721A601A6842F480621A601A6842F41B
:1005280080721A60032000F02FF80020FFF7C8FF40
:1005380001F036FC002008BD003C0240034A116867
:10054800034B1B780B441360704700BF0801002061
:1005580000000020014B1868704700BF0801002008
:1005680038B50446FFF7F6FF0546B4F1FF3F02D061
:10057800044B1B781C44FFF7EDFF401BA042FAD345
:1005880038BD00BF00000020074AD36823F4E063A9
:100598001B041B0C000200F4E060184340F0BF602D
:1005A80040F40030D060704700ED00E030B4174BE5
:1005B800DB68C3F30223C3F10704042C28BF042417
:1005C8001D1D062D18D9033B4FF0FF3505FA04F41D
:1005D80021EA0401994005FA03F322EA03031943C7
:1005E80000280BDB0901C9B200F1604000F5614049
:1005F80080F8001330BC70470023E5E700F00F00D7
:100608000901C9B2024B1954F4E700BF00ED00E03C
:1006180014ED00E000F01F02400901239340024A54
:1006280042F82030704700BF00E100E00138B0F127
:10063800807F0AD2064B5860064AF02182F82310C0
:100648000020986007221A6070470120704700BF99
:1006580010E000E000ED00E0042805D0054A13682A
:1006680023F0040313607047024A136843F004033D
:100678001360704710E000E0704708B5FFF7FCFF13
:1006880008BD90F83530DBB2022B03D080234365D8
:1006980001207047052380F835300268136823F07D
:1006A800010313600020704700230F2B00F2D7804E
:1006B800F0B482B039E0072200E00022B2403A43A9
:1006C8000234674E46F82420664A1468EA4302EA70
:1006D80004064F6817F4803F01D045EA0406614CD0
:1006E8002660646802EA04064F6817F4003F01D0E8
:1006F80045EA04065B4C6660A46802EA04064F6893
:1007080017F4801F01D045EA0406564CA660E46839
:1007180022404E6816F4001F01D045EA0402514CED
:10072800E26001330F2B00F2978001229A400C6897
:1007380004EA0205AA42F4D14C68022C01D0122C1A
:1007480010D1DE08083650F826C003F00704A700C9
:100758000F24BC402CEA040C0C69BC4044EA0C048D
:1007680040F8264004685F000326BE40F64306EAC8
:10077800040C4C6804F00304BC4044EA0C04046014
:100788004C6804F1FF3CBCF1010F03D9112C01D0D6
:10079800122C10D1846806EA040CCC68BC4044EAE8
:1007A8000C048460446824EA02024C68C4F3001410
:1007B8009C4014434460C26816408A68BA40324379
:1007C800C2604A6812F0805FABD000220192264ACC
:1007D800546C44F480445464526C02F48042019294
:1007E800019A9C08A61C1E4A52F8267003F00302C0
:1007F80096000F22B24027EA02071C4A90423FF4B3
:100808005CAF02F5806290421AD002F58062904295
:1008180018D002F58062904216D002F580629042AC
:1008280014D002F58062904212D002F580629042A4
:1008380010D002F5806290423FF43DAF08223DE7B8
:1008480001223BE7022239E7032237E7042235E792
:10085800052233E7062231E702B0F0BC7047704743
:1008680000380140003C01400038024000000240CE
:100878000369194201D1002070470120704712B95D
:10088800090481617047816170474369594041613A
:1008980070470000002800F0BB8170B582B00446A4
:1008A800036813F0010F3BD0A74B9B6803F00C03C0
:1008B800042B2CD0A44B9B6803F00C03082B21D0ED
:1008C8006368B3F5803F4FD0B3F5A02F52D09E4B4D
:1008D8001A6822F480321A601A6822F480221A6098
:1008E8006368002B50D0FFF735FE0546964B1B6812
:1008F80013F4003F14D1FFF72DFE401B6428F5D9EF
:1009080003208AE1904B5B6813F4800FD8D08E4B9C
:100918001B6813F4003F03D06368002B00F07A8152
:10092800236813F0020F55D0874B9B6813F00C0F08
:100938003ED0854B9B6803F00C03082B33D0E3684B
:10094800002B68D0814B01221A60FFF703FE054691
:100958007D4B1B6813F0020F54D1FFF7FBFD401BC2
:100968000228F5D9032058E1774A136843F4803305
:100978001360B5E7744B1A6842F480221A601A684B
:1009880042F480321A60ABE7FFF7E4FD05466E4B90
:100998001B6813F4003FC3D0FFF7DCFD401B64283D
:1009A800F5D9032039E1684B5B6813F4800FC6D191
:1009B800654B1B6813F0020F04D0E368012B01D0CC
:1009C80001202AE1604A136823F0F803216943EA09
:1009D800C1031360236813F0080F40D0636963B341
:1009E8005B4B01221A60FFF7B5FD0546564B5B6F5E
:1009F80013F0020F33D1FFF7ADFD401B0228F5D9E4
:100A080003200AE1504A136823F0F803216943EAF6
:100A1800C1031360DEE74D4B00221A60FFF79AFD11
:100A28000546494B1B6813F0020FD3D0FFF792FD20
:100A3800401B0228F5D90320EFE0454B00221A603D
:100A4800FFF788FD0546404B5B6F13F0020F06D099
:100A5800FFF780FD401B0228F5D90320DDE023685D
:100A680013F0040F79D0384B1B6C13F0805F33D12F
:100A780000230193344B1A6C42F080521A641B6CA9
:100A880003F080530193019B0125324B1B6813F43B
:100A9800807F23D0A368012B34D0052B38D02A4B74
:100AA8001A6F22F001021A671A6F22F004021A67FD
:100AB800A368002B36D0FFF74DFD0646224B1B6F6F
:100AC80013F0020F48D1FFF745FD801B41F2883330
:100AD8009842F3D90320A0E00025D6E71D4A136801
:100AE80043F480731360FFF735FD0646194B1B6806
:100AF80013F4807FCED1FFF72DFD801B0228F5D996
:100B080003208AE0104A136F43F001031367CFE70D
:100B18000D4B1A6F42F004021A671A6F42F0010275
:100B28001A67C5E7FFF716FD0646074B1B6F13F05C
:100B3800020F11D0FFF70EFD801B41F28833984257
:100B4800F3D9032069E000BF0038024000004742A3
:100B5800800E474200700040E5B9A369002B5BD0C6
:100B6800304A926802F00C02082A58D0022B17D09B
:100B78002D4B00221A60FFF7EDFC0446294B1B6839
:100B880013F0007F42D0FFF7E5FC001B0228F5D9DF
:100B9800032042E0234A136C23F080531364DCE7FC
:100BA800214B00221A60FFF7D5FC05461D4B1B6838
:100BB80013F0007F06D0FFF7CDFC401B0228F5D9C3
:100BC80003202AE0E369226A1343626A43EA821334
:100BD800A26A5208013A43EA0243E26A43EA02631C
:100BE800104A5360104B01221A60FFF7B3FC044609
:100BF8000C4B1B6813F0007F06D1FFF7ABFC001B02
:100C08000228F5D9032008E0002006E0002004E0CF
:100C180001207047012000E0002002B070BD0120D3
:100C2800FBE700BF0038024060004742324B9B6838
:100C380003F00C03042B5CD0082B01D02F4870471D
:100C48002DE9F04B2C4B5A6802F03F025B6813F415
:100C5800800F2BD0284B5B68C3F388131E460027F0
:100C68005C010025E41A65EB0705A90141EA9461D6
:100C7800A001001B61EB0501CB0043EA5073C400DF
:100C8800A01943EB07014B0243EAD0534402204624
:100C980019460023FFF794FA174B5B68C3F3014327
:100CA80001335B00B0FBF3F0BDE8F08B124B5B68DF
:100CB800C3F388131E4600275C010025E41A65EB80
:100CC8000705A90141EA9461A001001B61EB050138
:100CD800CB0043EA5073C400A01943EB07018B0211
:100CE80043EA90538402204619460023FFF768FA26
:100CF800D2E70348704700BF003802400024F400E0
:100D080000127A00002800F09D8070B504464F4B11
:100D18001B6803F00F038B4209D2CBB24B4A137006
:100D2800136803F00F038B4201D0012070BD2368C4
:100D380013F0020F17D013F0040F04D0444A93683D
:100D480043F4E0539360236813F0080F04D0404A3B
:100D5800936843F4604393603D4A936823F0F0033B
:100D6800A068034393600D46236813F0010F32D047
:100D78006368012B21D09A1E012A25D9344A1268AA
:100D880012F0020F60D032498A6822F0030213433E
:100D98008B60FFF7DFFB06462D4B9B6803F00C03C7
:100DA8006268B3EB820F16D0FFF7D4FB801B41F2C9
:100DB80088339842F0D90320B8E7254A126812F41C
:100DC800003FE0D10120B1E7214A126812F0007F0C
:100DD800D9D10120AAE71D4B1B6803F00F03AB42D2
:100DE80009D9EAB2194B1A701B6803F00F03AB421A
:100DF80001D001209AE7236813F0040F06D0144AA3
:100E0800936823F4E053E1680B439360236813F07D
:100E1800080F07D00E4A936823F46043216943EA18
:100E2800C1039360FFF702FF094B9B68C3F30313E9
:100E3800084AD35CD840084B18600020FFF740FBF5
:100E4800002073E70120704701206FE7003C024053
:100E5800003802402422000808000020014B1868CE
:100E6800704700BF0800002008B5FFF7F7FF044BE4
:100E78009B68C3F38223034AD35CD84008BD00BFF4
:100E8800003802403422000808B5FFF7E7FF044B9A
:100E98009B68C3F34233034AD35CD84008BD00BF04
:100EA80000380240342200080268D36843F0010386
:100EB800D3600268136843F0010313600020704791
:100EC8007047704770477047704710B5044603680D
:100ED8001A6912F0020F11D0DA6812F0020F0DD061
:100EE8006FF002021A610123037603689B6913F00D
:100EF800030F70D0FFF7E6FF0023237623681A69F3
:100F080012F0040F12D0DA6812F0040F0ED06FF04E
:100F180004021A610223237623689B6913F4407F35
:100F28005FD02046FFF7CEFF0023237623681A6997
:100F380012F0080F12D0DA6812F0080F0ED06FF016
:100F480008021A61042323762368DB6913F0030F70
:100F58004ED02046FFF7B6FF0023237623681A6990
:100F680012F0100F12D0DA6812F0100F0ED06FF0D6
:100F780010021A61082323762368DB6913F4407F83
:100F88003DD02046FFF79EFF0023237623681A6989
:100F980012F0010F03D0DA6812F0010F36D123687E
:100FA8001A6912F0800F03D0DA6812F0800F34D17A
:100FB80023681A6912F0400F03D0DA6812F0400F64
:100FC80032D123681A6912F0200F03D0DA6812F0C0
:100FD800200F30D110BDFFF774FF2046FFF773FFD5
:100FE8008AE72046FFF76DFF2046FFF76CFF9BE777
:100FF8002046FFF766FF2046FFF765FFACE720466F
:10100800FFF75FFF2046FFF75EFFBDE76FF00102C5
:101018001A612046FFF754FFC1E76FF080021A619A
:10102800204600F0B2F8C3E76FF040021A6120468C
:10103800FFF74AFFC5E76FF020021A61204600F06B
:10104800A3F8C7E703682E4A904212D0B0F1804F48
:101058000FD0A2F57C4290420BD002F580629042FC
:1010680007D002F58062904203D002F578429042A0
:1010780003D123F070034A681343214A90422AD0CF
:10108800B0F1804F27D0A2F57C42904223D002F5E0
:10109800806290421FD002F5806290421BD002F518
:1010A8007842904217D002F57052904213D002F560
:1010B800806290420FD002F5806290420BD0A2F578
:1010C8009832904207D002F58062904203D002F530
:1010D8008062904203D123F44073CA6813430360CB
:1010E8008B68C3620B688362054B984203D003F593
:1010F8008063984201D10B69036301234361704700
:1011080000000140A8B110B5044690F839305BB131
:10111800022384F83930211D2068FFF793FF01234B
:1011280084F83930002010BD80F8383000F082FE95
:10113800EEE70120704790F83830012B22D030B408
:10114800012280F83820022380F839300468636867
:1011580023F070036360046863680D682B43636061
:101168000468A36823F08003A3600468A36849683F
:101178000B43A36080F83920002380F838301846E4
:1011880030BC704702207047704770470268D368C8
:1011980023F49073D3600268536923F00103536109
:1011A800202380F83A30704790F83930DBB2212B91
:1011B8002AD18368B3F5805F16D0036A5A1C02628D
:1011C8001A7803685A60C38C013B9BB2C384EBB99D
:1011D8000268D36823F08003D3600268D36843F0C1
:1011E8004003D36000207047036A1B880268C3F37A
:1011F8000803536003691BB9036A02330362E2E719
:10120800036A01330362DEE702207047002070475B
:101218002DE9F843044601680A6922F44052C3687C
:1012280013430B610168CA6822F4164222F00C02CB
:1012380083680069034360690343E0690343134318
:10124800CB6021684A6922F44072A36913434B6159
:10125800E369B3F5004F60D02368B84A934200F0C1
:10126800148102F58062934200F00F81FFF7FCFDC4
:1012780000EB800000EB80006568AD00B0FBF5F581
:10128800AF4FA7FB05356D092E01FFF7EDFD00EB0C
:10129800800000EB80006568AD00B0FBF5F9FFF752
:1012A800E3FD00EB800000EB80006568AD00B0FB5B
:1012B800F5F5A7FB05356D094FF0640808FB159592
:1012C8002D013235A7FB05356D0905F0F0053544CC
:1012D800FFF7CAFD00EB800000EB80006668B600EF
:1012E800B0FBF6F6FFF7C0FD00EB800000EB8000D6
:1012F80063689B00B0FBF3F0A7FB0030400908FBD4
:1013080010684FEA081808F13208A7FB0837C7F336
:10131800431723682F449F600DE12368874A93424F
:101328005BD002F58062934257D0FFF79DFD00EB3A
:10133800800000EB800065686D00B0FBF5F5804F1C
:10134800A7FB05356D092E01FFF78EFD00EB800028
:1013580000EB800065686D00B0FBF5F9FFF784FDD0
:1013680000EB800000EB800065686D00B0FBF5F5D0
:10137800A7FB05356D094FF0640808FB1595ED00CE
:101388003235A7FB05356D096D0005F4F875354450
:10139800FFF76AFD00EB800000EB800066687600CE
:1013A800B0FBF6F6FFF760FD00EB800000EB800075
:1013B80063685B00B0FBF3F3A7FB03235B0908FB3F
:1013C80013684FEAC80808F13208A7FB0837C7F3C3
:1013D800421723682F449F60ADE0FFF755FD00EBEF
:1013E800800000EB800065686D00B0FBF5F5544F98
:1013F800A7FB05356D092E01FFF746FD00EB8000C0
:1014080000EB800065686D00B0FBF5F9FFF73CFD67
:1014180000EB800000EB800065686D00B0FBF5F51F
:10142800A7FB05356D094FF0640808FB1595ED001D
:101438003235A7FB05356D096D0005F4F87535449F
:10144800FFF722FD00EB800000EB80006668760065
:10145800B0FBF6F6FFF718FD00EB800000EB80000C
:1014680063685B00B0FBF3F3A7FB03235B0908FB8E
:1014780013684FEAC80808F13208A7FB0837C7F312
:10148800421723682F449F6055E0FFF7FDFC00EBEF
:10149800800000EB80006568AD00B0FBF5F5284FD3
:1014A800A7FB05356D092E01FFF7EEFC00EB800068
:1014B80000EB80006568AD00B0FBF5F9FFF7E4FCD0
:1014C80000EB800000EB80006568AD00B0FBF5F52F
:1014D800A7FB05356D094FF0640808FB15952D012C
:1014E8003235A7FB05356D0905F0F0053544FFF7E2
:1014F800CBFC00EB800000EB80006668B600B0FB18
:10150800F6F6FFF7C1FC00EB800000EB8000636893
:101518009B00B0FBF3F0A7FB0030400908FB106804
:101528004FEA081808F13208A7FB0837C7F3431732
:1015380023682F449F60BDE8F88300BF0010014076
:101548001F85EB512DE9F04105460F461646984692
:10155800069C2B681B6837EA03030CBF0123002392
:10156800B3421DD1B4F1FF3FF3D02CB1FEF7F2FF27
:10157800A0EB0800A042ECD92A68D36823F4D07302
:10158800D3602A68536923F001035361202385F847
:10159800393085F83A30002385F83830032000E0E8
:1015A8000020BDE8F08158B310B5044690F83930F2
:1015B8000BB3242384F839302268D36823F400530A
:1015C800D3602046FFF724FE2268136923F4904372
:1015D80013612268536923F02A0353612268D36890
:1015E80043F40053D3600020E063202384F83930AB
:1015F80084F83A3010BD80F8383000F03BFCD8E76A
:10160800012070472DE9F04182B01E4690F839302C
:10161800DBB2202B55D104460D469046002955D003
:10162800002A55D090F83830012B53D0012380F888
:1016380038300023C363212380F83930FEF78AFF4E
:101648000746A4F82480A4F8268010E000963B46BC
:10165800002280212046FFF775FF00283CD12B8807
:101668002268C3F3080353602369C3B90235E38CC6
:101678009BB2B3B1E38C013B9BB2E384A368B3F59F
:10168800805FE3D000963B46002280212046FFF78A
:1016980059FF18BB2A7823685A600135E7E70135F6
:1016A800E5E700963B46002240212046FFF74AFF27
:1016B8000346A8B9202284F83920002284F838206B
:1016C80000E00223184602B0BDE8F0810123F9E7E3
:1016D8000123F7E70223F5E70323F3E70323F1E701
:1016E8000323EFE790F83A30DBB2202B1BD1E1B1AE
:1016F800EAB190F83830012B1BD081628285C2850F
:101708000023C363222280F83A2080F83830016829
:101718004A6942F001024A610168CA6842F490725B
:10172800CA601846704702207047012070470120A0
:10173800704702207047704708B50168CB6823F0EE
:101748004003CB60202380F83930FFF7F4FF0020F6
:1017580008BD08B590F83A30DBB2222B40D1836837
:10176800B3F5805F0ED0036903BB03685A68836AC8
:10177800591C81621A70C38D013B9BB2C385F3B1BA
:1017880000202EE0826A036943B903685B68C3F3EB
:1017980008031380836A02338362ECE703685B689B
:1017A800DBB21380836A01338362E4E703685B6812
:1017B800826A511C816203F07F031370DBE70268C1
:1017C800D36823F49073D3600268536923F001034C
:1017D8005361202380F83A3000F0A0F9002000E09F
:1017E800022008BD7047000010B50446026813685F
:1017F800D168526913F00F0005D113F0200F02D001
:1018080011F0200F53D1002867D012F0010202D145
:1018180011F4907F61D013F0010F06D011F4807F8E
:1018280003D0E06B40F00100E06313F0040F04D034
:101838001AB1E06B40F00200E06313F0020F04D02D
:101848001AB1E06B40F00400E06313F0080F04D015
:101858001AB1E26B42F00802E263E26B002A48D058
:1018680013F0200F02D011F0200F24D123685B69F8
:1018780003F04003E26B12F0080F00D13BB320469F
:10188800FFF784FC23685A6912F0400F1BD05A698D
:1018980022F040025A61636B8BB11A4A1A65606B79
:1018A800FEF7EFFE28B3606B036D984721E02046F2
:1018B800FFF74FFF1DE02046FFF74BFFD6E7204616
:1018C800FFF790FF15E02046FFF78CFF11E0204658
:1018D800FFF788FF0023E3630BE013F0800F02D0CB
:1018E80011F0800F06D113F0400F02D011F0400F15
:1018F80004D110BD2046FFF757FCFAE72046FFF752
:101908001BFFF6E71119000808B5806B0023C38593
:10191800C384FFF767FF08BD2DE9F04F8DB00024A1
:101928000194774B1A6B42F010021A631A6B02F09B
:1019380010020192019A02941A6B42F004021A638F
:101948001A6B02F004020292029A03941A6B42F094
:1019580080021A631A6B02F080020392039A0494BD
:101968001A6B42F001021A631A6B02F00102049228
:10197800049A05941A6B42F002021A631A6B02F079
:1019880002020592059A06941A6B42F008021A633D
:101998001B6B03F008030693069B2246082159484F
:1019A800FEF76DFFDFF87081012211464046FEF711
:1019B80066FF22464FF210015348FEF760FF0825E4
:1019C80007950126089609940A9407A94D48FEF739
:1019D8006BFE0796089609940A9407A94046FEF7F5
:1019E80063FE07950225089509940A944FF00509A6
:1019F800CDF82C9007A94046FEF756FE07960894A6
:101A08000994424F07A93846FEF74EFE1023079364
:101A1800089509940A944FF0060BCDF82CB007A945
:101A28003846FEF741FEE0230793089509940A9487
:101A3800CDF82C9007A93846FEF736FE4FF0040A79
:101A4800CDF81CA00894099407A93148FEF72CFE8C
:101A58004FF480630793089509940A94CDF82C9065
:101A680007A92B48FEF720FE4FF2100307930896AC
:101A780009940A9407A92448FEF716FE4FF4A453C4
:101A88000793089509940A94CDF82CB007A9404605
:101A9800FEF70AFE4FF4007307930894099407A908
:101AA8003846FEF701FE4FF4E05307930895099472
:101AB8000A940A230B9307A93846FEF7F5FD20235D
:101AC80007930894099407A90F48FEF7EDFD4FF412
:101AD800107307931223089309960A94CDF82CA043
:101AE80007A90B48FEF7E0FD07950A4B08930994F0
:101AF80007A90448FEF7D8FD0DB0BDE8F08F00BF78
:101B08000038024000100240000C02400000024071
:101B1800000402400000121000080240F8B52A4AEA
:101B280013781179D01801720133DBB213703B2995
:101B380005D0012225492648FFF7D4FDF8BD1446F3
:101B4800134400251D72104600F8085B214F3946E2
:101B580000F082FA204E30600378312B14BF002346
:101B6800012384F86C303946284600F075FA306055
:101B78000378312B14BF0023012384F86D3094F8C7
:101B88006C30012B11D000224FF480511348FEF71E
:101B980076FE0D4B93F86D30012B0DD000224FF4DB
:101BA80000510E48FEF76BFEC3E701224FF4805147
:101BB8000A48FEF764FEECE701224FF4005107489B
:101BC800FEF75DFEB5E700BF8C0000209000002006
:101BD8004C0100203C2200080C010020000C0240AF
:101BE800FEE7000000B583B01048114B036040F2D7
:101BF800E73343600023836046F2A713C360FFF70F
:101C080081FA50B900230093019369460748FFF70A
:101C180092FA30B903B05DF804FBE4210548FFF7F8
:101C2800DFFFEB210348FFF7DBFF00BF10010020B7
:101C3800001000404022000808B50B480B4B036019
:101C48004FF41653436000238360C36003610C2282
:101C580042618361C361FFF7A6FC00B908BDFE219C
:101C68000348FFF7BDFF00BF4C01002000440040BF
:101C78004022000800B595B0002201922A4B196C49
:101C880041F0805119641B6C03F080530193019B50
:101C98000292264B196841F4804119601B6803F4CD
:101CA80080430293029B0223089301210B91102188
:101CB8000C910E930F9208221092322211921293D5
:101CC8000723139308A8FEF7E5FD20BB0F23039312
:101CD80002230493802305934FF4805306934FF413
:101CE800A0530793002103A8FFF70CF8B8B9FFF732
:101CF800B5F80F4BA3FB00308009FEF797FC0420D2
:101D0800FEF7AAFC002211464FF0FF30FEF74EFC0A
:101D180015B05DF804FBBB210648FFF761FFC92138
:101D28000448FFF75DFF00BF003802400070004024
:101D3800D34D62104022000808B5FEF7E5FBFFF717
:101D480099FFFFF7E9FDFFF74DFFFFF775FF0F4814
:101D5800FFF7AAF801220E490E48FFF7C3FC08E076
:101D68004B20FEF7FDFB01210B48FEF781FD002803
:101D7800F6D101210848FEF77BFD0028F9D04FF481
:101D880080510648FEF781FDEDE700BF10010020F5
:101D9800900000204C01002000000240000C02408E
:101DA80010B582B000240094214B5A6C42F4804252
:101DB8005A645A6C02F480420092009A01941A6C98
:101DC80042F080521A641B6C03F080530193019B0C
:101DD8000720FEF7D9FB224621466FF00B00FEF7DD
:101DE800E5FB224621466FF00A00FEF7DFFB22469C
:101DF80021466FF00900FEF7D9FB224621466FF015
:101E08000400FEF7D3FB224621466FF00300FEF7DD
:101E1800CDFB224621466FF00100FEF7C7FB2246A4
:101E280021464FF0FF30FEF7C1FB02B010BD00BFE6
:101E38000038024002680E4B9A4200D0704700B545
:101E480083B00021019103F50A331A6C42F01002A5
:101E58001A641B6C03F010030193019B0A46362099
:101E6800FEF7A4FB3620FEF7D5FB03B05DF804FBB4
:101E7800001000400268154B9A4200D0704710B518
:101E880086B00024009403F5FA331A6C42F4003249
:101E98001A641B6C03F400330093009B0C2301931A
:101EA8000223029301230393032304930723059337
:101EB80001A90748FEF7F8FB224621462620FEF72F
:101EC80075FB2620FEF7A6FB06B010BD00440040B7
:101ED800000002407047FEE7FEE7FEE7FEE77047B6
:101EE8007047704708B5FEF729FBFEF7C6FB08BD2B
:101EF80008B50248FFF778FC08BD00BF4C01002078
:101F080030B583B0164B93E8030000908DF80410A9
:101F1800144C4FF480512046FEF7AAFC05464FF4B6
:101F280000512046FEF7A4FC8DB930238DF800300F
:101F380088B131238DF80230FA23052269460A4810
:101F4800FFF760FB0948FEF7C0FF03B030BD31233F
:101F58008DF80030ECE730238DF80230ECE700BF55
:101F680050220008000C02404C0100201001002003
:101F78000F49D1F8883043F47003C1F888300D4B0D
:101F88001A6842F001021A60002098601A6822F06C
:101F9800847222F480321A60074A5A601A6822F45E
:101FA80080221A60D8604FF000638B60704700BFD2
:101FB80000ED00E00038024010300024DFF834D093
:101FC800002103E00C4B5B58435004310B480C4B89
:101FD80042189A42F6D30B4A02E0002342F8043B27
:101FE800094B9A42F9D3FFF7C3FF00F011F8FFF746
:101FF800A3FE7047000002206822000800000020AD
:10200800700000207000002090010020FEE7000012
:1020180070B50D4E0D4CA41BA4100025A54209D186
:102028000B4E0C4C00F0EEF8A41BA4100025A542A2
:1020380005D170BD56F8253098470135EEE756F8BA
:10204800253098470135F2E7602200086022000831
:102058006022000864220008134B2DE9F0411D6836
:10206800AC6D06460F46B4B9502000F049F8A86593
:10207800C0E90044C0E90244C0E90444C0E90A4494
:10208800C0E90C44C0E90E44C0E91044C0E9124458
:10209800846104774462AA6D394630460123BDE85D
:1020A800F04100F003B800BF0C000020F0B518B9EB
:1020B800106808B9F0BD204604460F4614F8015BC5
:1020C80017F8016B1EB96DB915602846F2E7B542DD
:1020D800F6D1002BEFD114600370EBE72B460DE02F
:1020E80026B91C4623460F4613F8015B17F8016B07
:1020F800B542F5D1002DF1D0002121701360D9E748
:10210800024B0146186800F003B800BF0C0000201D
:1021180070B5CD1C25F0030508350C2D38BF0C25EE
:10212800002D064601DBA94203D90C2333600020A9
:1021380070BD00F057F8214A1468214691B9204C27
:1021480023681BB9304600F03DF820602946304628
:1021580000F038F8431C24D10C233360304600F0DB
:1021680042F8E4E70B685B1B18D40B2B0FD90B6004
:10217800CD50CC18304600F036F804F10B00231D82
:1021880020F00700C31AD3D05A42E250D0E78C425D
:102198004B6816BF636013600C46EBE70C46496852
:1021A800CCE7C41C24F00304A04205D0211A304611
:1021B80000F008F80130CFD02560DBE7FC000020F4
:1021C8000001002038B5064C002305460846236068
:1021D80000F00AF8431C02D1236803B12B6038BD14
:1021E8008C01002070477047044A05491368002B8A
:1021F80008BF0B46184410601846704704010020B9
:1022080090010020F8B500BFF8BC08BC9E46704796
:0C221800F8B500BFF8BC08BC9E4670473B
:102224000000000000000000010203040607080982
:102234000000000001020304090000002E2E2F53A9
:1022440072632F6D61696E2E630000003009303BAC
:042254000000000086
:08225800A0DFFF7F0100000080
:04226000AD010008C4
:0422640089010008E4
:1022680001000000100000000024F400100000200D
:102278000000000000000000000000000000000056
:102288000000000000000000000000000000000046
:102298000000000000000000000000000000000036
:1022A8000000000000000000000000000000000026
:1022B8000000000000000000000000000000000016
:1022C8000000000000000000000000000000000006
:0400000508001FC50B
:00000001FF
